{
  "_format": "hh-sol-artifact-1",
  "contractName": "AriaCraftMarketPlace",
  "sourceName": "contracts/Marketplace.sol",
  "abi": [
    {
      "inputs": [
        {
          "internalType": "address",
          "name": "musicalNFTDeployedAddr",
          "type": "address"
        }
      ],
      "stateMutability": "payable",
      "type": "constructor"
    },
    {
      "inputs": [],
      "name": "ReentrancyGuardReentrantCall",
      "type": "error"
    },
    {
      "anonymous": false,
      "inputs": [
        {
          "indexed": false,
          "internalType": "uint256",
          "name": "token",
          "type": "uint256"
        },
        {
          "indexed": false,
          "internalType": "uint256",
          "name": "price",
          "type": "uint256"
        }
      ],
      "name": "PriceUpdated",
      "type": "event"
    },
    {
      "inputs": [
        {
          "internalType": "uint256",
          "name": "tokenId",
          "type": "uint256"
        }
      ],
      "name": "buyMusicalNFT",
      "outputs": [],
      "stateMutability": "payable",
      "type": "function"
    },
    {
      "inputs": [
        {
          "internalType": "uint256",
          "name": "tokenId",
          "type": "uint256"
        }
      ],
      "name": "cancleListing",
      "outputs": [],
      "stateMutability": "nonpayable",
      "type": "function"
    },
    {
      "inputs": [
        {
          "internalType": "uint256",
          "name": "tokenId",
          "type": "uint256"
        }
      ],
      "name": "getItemDetails",
      "outputs": [
        {
          "internalType": "string",
          "name": "artistName",
          "type": "string"
        },
        {
          "internalType": "string",
          "name": "genre",
          "type": "string"
        },
        {
          "internalType": "string",
          "name": "linkToMusic",
          "type": "string"
        }
      ],
      "stateMutability": "view",
      "type": "function"
    },
    {
      "inputs": [
        {
          "internalType": "string",
          "name": "artistName",
          "type": "string"
        },
        {
          "internalType": "string",
          "name": "genre",
          "type": "string"
        },
        {
          "internalType": "string",
          "name": "deployedMusicUrl",
          "type": "string"
        },
        {
          "internalType": "uint256",
          "name": "price",
          "type": "uint256"
        },
        {
          "internalType": "address payable",
          "name": "caller",
          "type": "address"
        }
      ],
      "name": "registerMusic",
      "outputs": [
        {
          "internalType": "uint256",
          "name": "",
          "type": "uint256"
        }
      ],
      "stateMutability": "payable",
      "type": "function"
    },
    {
      "inputs": [
        {
          "internalType": "uint256",
          "name": "tokenId",
          "type": "uint256"
        },
        {
          "internalType": "uint256",
          "name": "updatedPrice",
          "type": "uint256"
        }
      ],
      "name": "updateListing",
      "outputs": [],
      "stateMutability": "payable",
      "type": "function"
    },
    {
      "stateMutability": "payable",
      "type": "receive"
    }
  ],
  "bytecode": "0x60806040526040516200166f3803806200166f833981810160405281019062000029919062000146565b600160008190555080600260006101000a81548173ffffffffffffffffffffffffffffffffffffffff021916908373ffffffffffffffffffffffffffffffffffffffff160217905550600260009054906101000a900473ffffffffffffffffffffffffffffffffffffffff16600360006101000a81548173ffffffffffffffffffffffffffffffffffffffff021916908373ffffffffffffffffffffffffffffffffffffffff1602179055505062000178565b600080fd5b600073ffffffffffffffffffffffffffffffffffffffff82169050919050565b60006200010e82620000e1565b9050919050565b620001208162000101565b81146200012c57600080fd5b50565b600081519050620001408162000115565b92915050565b6000602082840312156200015f576200015e620000dc565b5b60006200016f848285016200012f565b91505092915050565b6114e780620001886000396000f3fe60806040526004361061004e5760003560e01c80630179ea881461007d57806373004ca0146100995780639c0c0d75146100d8578063ded7150a14610101578063eb06a8951461011d57610078565b366100785761007660405180608001604052806044815260200161142a60449139343361014d565b005b600080fd5b61009760048036038101906100929190610b9d565b6101ec565b005b3480156100a557600080fd5b506100c060048036038101906100bb9190610bdd565b6101fa565b6040516100cf93929190610c9a565b60405180910390f35b3480156100e457600080fd5b506100ff60048036038101906100fa9190610bdd565b6102ad565b005b61011b60048036038101906101169190610bdd565b6103d4565b005b61013760048036038101906101329190610e79565b6107d3565b6040516101449190610f57565b60405180910390f35b6101e783838360405160240161016593929190610f93565b6040516020818303038152906040527f1c7ec448000000000000000000000000000000000000000000000000000000007bffffffffffffffffffffffffffffffffffffffffffffffffffffffff19166020820180517bffffffffffffffffffffffffffffffffffffffffffffffffffffffff83818316178352505050506108e0565b505050565b6101f682826108fa565b5050565b6060806060600360009054906101000a900473ffffffffffffffffffffffffffffffffffffffff1673ffffffffffffffffffffffffffffffffffffffff1663bcae0601856040518263ffffffff1660e01b815260040161025a9190610f57565b600060405180830381865afa158015610277573d6000803e3d6000fd5b505050506040513d6000823e3d601f19601f820116820180604052508101906102a09190611041565b9250925092509193909250565b600360009054906101000a900473ffffffffffffffffffffffffffffffffffffffff1673ffffffffffffffffffffffffffffffffffffffff16636352211e826040518263ffffffff1660e01b81526004016103089190610f57565b602060405180830381865afa158015610325573d6000803e3d6000fd5b505050506040513d601f19601f820116820180604052508101906103499190611114565b73ffffffffffffffffffffffffffffffffffffffff163373ffffffffffffffffffffffffffffffffffffffff161461038057600080fd5b60016000828152602001908152602001600020600090557f945c1c4e99aa89f648fbfe3df471b916f719e16d960fcec0737d4d56bd6968388160006040516103c9929190611186565b60405180910390a150565b600360009054906101000a900473ffffffffffffffffffffffffffffffffffffffff1673ffffffffffffffffffffffffffffffffffffffff16636352211e826040518263ffffffff1660e01b815260040161042f9190610f57565b602060405180830381865afa15801561044c573d6000803e3d6000fd5b505050506040513d601f19601f820116820180604052508101906104709190611114565b73ffffffffffffffffffffffffffffffffffffffff163373ffffffffffffffffffffffffffffffffffffffff16036104a757600080fd5b60016000828152602001908152602001600020543373ffffffffffffffffffffffffffffffffffffffff163110156104de57600080fd5b600360009054906101000a900473ffffffffffffffffffffffffffffffffffffffff1673ffffffffffffffffffffffffffffffffffffffff16636352211e826040518263ffffffff1660e01b81526004016105399190610f57565b602060405180830381865afa158015610556573d6000803e3d6000fd5b505050506040513d601f19601f8201168201806040525081019061057a9190611114565b73ffffffffffffffffffffffffffffffffffffffff166108fc60016000848152602001908152602001600020549081150290604051600060405180830381858888f193505050501580156105d2573d6000803e3d6000fd5b506106a46040518060600160405280603281526020016113cb603291396001600084815260200190815260200160002054600360009054906101000a900473ffffffffffffffffffffffffffffffffffffffff1673ffffffffffffffffffffffffffffffffffffffff16636352211e856040518263ffffffff1660e01b815260040161065e9190610f57565b602060405180830381865afa15801561067b573d6000803e3d6000fd5b505050506040513d601f19601f8201168201806040525081019061069f9190611114565b61014d565b600360009054906101000a900473ffffffffffffffffffffffffffffffffffffffff1673ffffffffffffffffffffffffffffffffffffffff16639bf4853d82600360009054906101000a900473ffffffffffffffffffffffffffffffffffffffff1673ffffffffffffffffffffffffffffffffffffffff16636352211e856040518263ffffffff1660e01b815260040161073e9190610f57565b602060405180830381865afa15801561075b573d6000803e3d6000fd5b505050506040513d601f19601f8201168201806040525081019061077f9190611114565b336040518463ffffffff1660e01b815260040161079e939291906111af565b600060405180830381600087803b1580156107b857600080fd5b505af11580156107cc573d6000803e3d6000fd5b5050505050565b60006107f8604051806080016040528060438152602001611388604391398533610971565b61080182610a10565b6000600360009054906101000a900473ffffffffffffffffffffffffffffffffffffffff1673ffffffffffffffffffffffffffffffffffffffff16632768ac8a8888886040518463ffffffff1660e01b815260040161086293929190610c9a565b6020604051808303816000875af1158015610881573d6000803e3d6000fd5b505050506040513d601f19601f820116820180604052508101906108a591906111fb565b90506108b181856108fa565b6108d360405180608001604052806044815260200161146e6044913982610a81565b8091505095945050505050565b6108f7816108ef610b1d610b3e565b63ffffffff16565b50565b8060016000848152602001908152602001600020819055507f945c1c4e99aa89f648fbfe3df471b916f719e16d960fcec0737d4d56bd6968388282604051610943929190611228565b60405180910390a161096d6040518060600160405280602d81526020016113fd602d913982610a81565b5050565b610a0b83838360405160240161098993929190611251565b6040516020818303038152906040527f95ed0195000000000000000000000000000000000000000000000000000000007bffffffffffffffffffffffffffffffffffffffffffffffffffffffff19166020820180517bffffffffffffffffffffffffffffffffffffffffffffffffffffffff83818316178352505050506108e0565b505050565b3373ffffffffffffffffffffffffffffffffffffffff168173ffffffffffffffffffffffffffffffffffffffff1614610a7e576040517f08c379a0000000000000000000000000000000000000000000000000000000008152600401610a7590611308565b60405180910390fd5b50565b610b198282604051602401610a97929190611328565b6040516020818303038152906040527fb60e72cc000000000000000000000000000000000000000000000000000000007bffffffffffffffffffffffffffffffffffffffffffffffffffffffff19166020820180517bffffffffffffffffffffffffffffffffffffffffffffffffffffffff83818316178352505050506108e0565b5050565b60006a636f6e736f6c652e6c6f679050600080835160208501845afa505050565b610b49819050919050565b610b51611358565b565b6000604051905090565b600080fd5b600080fd5b6000819050919050565b610b7a81610b67565b8114610b8557600080fd5b50565b600081359050610b9781610b71565b92915050565b60008060408385031215610bb457610bb3610b5d565b5b6000610bc285828601610b88565b9250506020610bd385828601610b88565b9150509250929050565b600060208284031215610bf357610bf2610b5d565b5b6000610c0184828501610b88565b91505092915050565b600081519050919050565b600082825260208201905092915050565b60005b83811015610c44578082015181840152602081019050610c29565b60008484015250505050565b6000601f19601f8301169050919050565b6000610c6c82610c0a565b610c768185610c15565b9350610c86818560208601610c26565b610c8f81610c50565b840191505092915050565b60006060820190508181036000830152610cb48186610c61565b90508181036020830152610cc88185610c61565b90508181036040830152610cdc8184610c61565b9050949350505050565b600080fd5b600080fd5b7f4e487b7100000000000000000000000000000000000000000000000000000000600052604160045260246000fd5b610d2882610c50565b810181811067ffffffffffffffff82111715610d4757610d46610cf0565b5b80604052505050565b6000610d5a610b53565b9050610d668282610d1f565b919050565b600067ffffffffffffffff821115610d8657610d85610cf0565b5b610d8f82610c50565b9050602081019050919050565b82818337600083830152505050565b6000610dbe610db984610d6b565b610d50565b905082815260208101848484011115610dda57610dd9610ceb565b5b610de5848285610d9c565b509392505050565b600082601f830112610e0257610e01610ce6565b5b8135610e12848260208601610dab565b91505092915050565b600073ffffffffffffffffffffffffffffffffffffffff82169050919050565b6000610e4682610e1b565b9050919050565b610e5681610e3b565b8114610e6157600080fd5b50565b600081359050610e7381610e4d565b92915050565b600080600080600060a08688031215610e9557610e94610b5d565b5b600086013567ffffffffffffffff811115610eb357610eb2610b62565b5b610ebf88828901610ded565b955050602086013567ffffffffffffffff811115610ee057610edf610b62565b5b610eec88828901610ded565b945050604086013567ffffffffffffffff811115610f0d57610f0c610b62565b5b610f1988828901610ded565b9350506060610f2a88828901610b88565b9250506080610f3b88828901610e64565b9150509295509295909350565b610f5181610b67565b82525050565b6000602082019050610f6c6000830184610f48565b92915050565b6000610f7d82610e1b565b9050919050565b610f8d81610f72565b82525050565b60006060820190508181036000830152610fad8186610c61565b9050610fbc6020830185610f48565b610fc96040830184610f84565b949350505050565b6000610fe4610fdf84610d6b565b610d50565b90508281526020810184848401111561100057610fff610ceb565b5b61100b848285610c26565b509392505050565b600082601f83011261102857611027610ce6565b5b8151611038848260208601610fd1565b91505092915050565b60008060006060848603121561105a57611059610b5d565b5b600084015167ffffffffffffffff81111561107857611077610b62565b5b61108486828701611013565b935050602084015167ffffffffffffffff8111156110a5576110a4610b62565b5b6110b186828701611013565b925050604084015167ffffffffffffffff8111156110d2576110d1610b62565b5b6110de86828701611013565b9150509250925092565b6110f181610f72565b81146110fc57600080fd5b50565b60008151905061110e816110e8565b92915050565b60006020828403121561112a57611129610b5d565b5b6000611138848285016110ff565b91505092915050565b6000819050919050565b6000819050919050565b600061117061116b61116684611141565b61114b565b610b67565b9050919050565b61118081611155565b82525050565b600060408201905061119b6000830185610f48565b6111a86020830184611177565b9392505050565b60006060820190506111c46000830186610f48565b6111d16020830185610f84565b6111de6040830184610f84565b949350505050565b6000815190506111f581610b71565b92915050565b60006020828403121561121157611210610b5d565b5b600061121f848285016111e6565b91505092915050565b600060408201905061123d6000830185610f48565b61124a6020830184610f48565b9392505050565b6000606082019050818103600083015261126b8186610c61565b9050818103602083015261127f8185610c61565b905061128e6040830184610f84565b949350505050565b7f43616c6c6572206e6565647320746f20626520746865206d73672e73656e646560008201527f7200000000000000000000000000000000000000000000000000000000000000602082015250565b60006112f2602183610c15565b91506112fd82611296565b604082019050919050565b60006020820190508181036000830152611321816112e5565b9050919050565b600060408201905081810360008301526113428185610c61565b90506113516020830184610f48565b9392505050565b7f4e487b7100000000000000000000000000000000000000000000000000000000600052605160045260246000fdfe596f7572204e4654206174207468652075726c203a202573206973206265696e67206d696e7465642e204f776e6572206f662074686973204e4654206973203a2025736c697374696e67207072696365202573207472616e73666572656420746f206f776e6572202573206f6620746865204e4654596f7572206d75736963616c204e465420707269636520686173206265656e206c697374656420666f722025734d61726b6574706c61636520636f6e74726163743a2025732045746865722072656369657665642066726f6d2073656e6465722825732920746f206f776e657228257329596f7572206d75736963616c204e465420686173206265656e206d696e7465642e2048657265277320796f757220756e6971756520496420726571756573746564202573a2646970667358221220c546fc456af957102212207a011b90f16283678bdaf228126aaa6954ba20b9ac64736f6c63430008140033",
  "linkReferences": {},
  "deployedLinkReferences": {}
}