{
  "_format": "hh-sol-artifact-1",
  "contractName": "MusicalNFT",
  "sourceName": "contracts/MusicalNft.sol",
  "abi": [
    {
      "inputs": [
        {
          "internalType": "string",
          "name": "name",
          "type": "string"
        },
        {
          "internalType": "string",
          "name": "symbol",
          "type": "string"
        }
      ],
      "stateMutability": "nonpayable",
      "type": "constructor"
    },
    {
      "inputs": [
        {
          "internalType": "address",
          "name": "sender",
          "type": "address"
        },
        {
          "internalType": "uint256",
          "name": "tokenId",
          "type": "uint256"
        },
        {
          "internalType": "address",
          "name": "owner",
          "type": "address"
        }
      ],
      "name": "ERC721IncorrectOwner",
      "type": "error"
    },
    {
      "inputs": [
        {
          "internalType": "address",
          "name": "operator",
          "type": "address"
        },
        {
          "internalType": "uint256",
          "name": "tokenId",
          "type": "uint256"
        }
      ],
      "name": "ERC721InsufficientApproval",
      "type": "error"
    },
    {
      "inputs": [
        {
          "internalType": "address",
          "name": "approver",
          "type": "address"
        }
      ],
      "name": "ERC721InvalidApprover",
      "type": "error"
    },
    {
      "inputs": [
        {
          "internalType": "address",
          "name": "operator",
          "type": "address"
        }
      ],
      "name": "ERC721InvalidOperator",
      "type": "error"
    },
    {
      "inputs": [
        {
          "internalType": "address",
          "name": "owner",
          "type": "address"
        }
      ],
      "name": "ERC721InvalidOwner",
      "type": "error"
    },
    {
      "inputs": [
        {
          "internalType": "address",
          "name": "receiver",
          "type": "address"
        }
      ],
      "name": "ERC721InvalidReceiver",
      "type": "error"
    },
    {
      "inputs": [
        {
          "internalType": "address",
          "name": "sender",
          "type": "address"
        }
      ],
      "name": "ERC721InvalidSender",
      "type": "error"
    },
    {
      "inputs": [
        {
          "internalType": "uint256",
          "name": "tokenId",
          "type": "uint256"
        }
      ],
      "name": "ERC721NonexistentToken",
      "type": "error"
    },
    {
      "inputs": [
        {
          "internalType": "address",
          "name": "owner",
          "type": "address"
        }
      ],
      "name": "ERC721WrongContractOwner",
      "type": "error"
    },
    {
      "anonymous": false,
      "inputs": [
        {
          "indexed": true,
          "internalType": "address",
          "name": "owner",
          "type": "address"
        },
        {
          "indexed": true,
          "internalType": "address",
          "name": "approved",
          "type": "address"
        },
        {
          "indexed": true,
          "internalType": "uint256",
          "name": "tokenId",
          "type": "uint256"
        }
      ],
      "name": "Approval",
      "type": "event"
    },
    {
      "anonymous": false,
      "inputs": [
        {
          "indexed": true,
          "internalType": "address",
          "name": "owner",
          "type": "address"
        },
        {
          "indexed": true,
          "internalType": "address",
          "name": "operator",
          "type": "address"
        },
        {
          "indexed": false,
          "internalType": "bool",
          "name": "approved",
          "type": "bool"
        }
      ],
      "name": "ApprovalForAll",
      "type": "event"
    },
    {
      "anonymous": false,
      "inputs": [
        {
          "indexed": false,
          "internalType": "address",
          "name": "payer",
          "type": "address"
        },
        {
          "indexed": false,
          "internalType": "uint256",
          "name": "amount",
          "type": "uint256"
        }
      ],
      "name": "EtherRecieved",
      "type": "event"
    },
    {
      "anonymous": false,
      "inputs": [
        {
          "components": [
            {
              "internalType": "string",
              "name": "artistName",
              "type": "string"
            },
            {
              "internalType": "string",
              "name": "genre",
              "type": "string"
            },
            {
              "internalType": "string",
              "name": "linkToMusic",
              "type": "string"
            }
          ],
          "indexed": false,
          "internalType": "struct MusicalNFT.MusicalNFTMetadata",
          "name": "metadata",
          "type": "tuple"
        },
        {
          "indexed": false,
          "internalType": "uint256",
          "name": "tokenId",
          "type": "uint256"
        }
      ],
      "name": "MusicalMEtaData",
      "type": "event"
    },
    {
      "anonymous": false,
      "inputs": [
        {
          "indexed": true,
          "internalType": "address",
          "name": "from",
          "type": "address"
        },
        {
          "indexed": true,
          "internalType": "address",
          "name": "to",
          "type": "address"
        },
        {
          "indexed": true,
          "internalType": "uint256",
          "name": "tokenId",
          "type": "uint256"
        }
      ],
      "name": "Transfer",
      "type": "event"
    },
    {
      "inputs": [
        {
          "internalType": "address",
          "name": "to",
          "type": "address"
        },
        {
          "internalType": "uint256",
          "name": "tokenId",
          "type": "uint256"
        }
      ],
      "name": "approve",
      "outputs": [],
      "stateMutability": "nonpayable",
      "type": "function"
    },
    {
      "inputs": [
        {
          "internalType": "address",
          "name": "owner",
          "type": "address"
        }
      ],
      "name": "balanceOf",
      "outputs": [
        {
          "internalType": "uint256",
          "name": "",
          "type": "uint256"
        }
      ],
      "stateMutability": "view",
      "type": "function"
    },
    {
      "inputs": [
        {
          "internalType": "uint256",
          "name": "tokenId",
          "type": "uint256"
        }
      ],
      "name": "getApproved",
      "outputs": [
        {
          "internalType": "address",
          "name": "",
          "type": "address"
        }
      ],
      "stateMutability": "view",
      "type": "function"
    },
    {
      "inputs": [
        {
          "internalType": "uint256",
          "name": "tokenId",
          "type": "uint256"
        }
      ],
      "name": "getMusicMetadata",
      "outputs": [
        {
          "internalType": "string",
          "name": "artistName",
          "type": "string"
        },
        {
          "internalType": "string",
          "name": "genre",
          "type": "string"
        },
        {
          "internalType": "string",
          "name": "linkToMusic",
          "type": "string"
        }
      ],
      "stateMutability": "view",
      "type": "function"
    },
    {
      "inputs": [
        {
          "internalType": "address",
          "name": "owner",
          "type": "address"
        },
        {
          "internalType": "address",
          "name": "operator",
          "type": "address"
        }
      ],
      "name": "isApprovedForAll",
      "outputs": [
        {
          "internalType": "bool",
          "name": "",
          "type": "bool"
        }
      ],
      "stateMutability": "view",
      "type": "function"
    },
    {
      "inputs": [
        {
          "internalType": "string",
          "name": "artistName",
          "type": "string"
        },
        {
          "internalType": "string",
          "name": "genre",
          "type": "string"
        },
        {
          "internalType": "string",
          "name": "linkToMusic",
          "type": "string"
        }
      ],
      "name": "mintMusicalNFT",
      "outputs": [
        {
          "internalType": "uint256",
          "name": "",
          "type": "uint256"
        }
      ],
      "stateMutability": "payable",
      "type": "function"
    },
    {
      "inputs": [],
      "name": "name",
      "outputs": [
        {
          "internalType": "string",
          "name": "",
          "type": "string"
        }
      ],
      "stateMutability": "view",
      "type": "function"
    },
    {
      "inputs": [],
      "name": "owner",
      "outputs": [
        {
          "internalType": "address payable",
          "name": "",
          "type": "address"
        }
      ],
      "stateMutability": "view",
      "type": "function"
    },
    {
      "inputs": [
        {
          "internalType": "uint256",
          "name": "tokenId",
          "type": "uint256"
        }
      ],
      "name": "ownerOf",
      "outputs": [
        {
          "internalType": "address",
          "name": "",
          "type": "address"
        }
      ],
      "stateMutability": "view",
      "type": "function"
    },
    {
      "inputs": [
        {
          "internalType": "address",
          "name": "from",
          "type": "address"
        },
        {
          "internalType": "address",
          "name": "to",
          "type": "address"
        },
        {
          "internalType": "uint256",
          "name": "tokenId",
          "type": "uint256"
        }
      ],
      "name": "safeTransferFrom",
      "outputs": [],
      "stateMutability": "nonpayable",
      "type": "function"
    },
    {
      "inputs": [
        {
          "internalType": "address",
          "name": "from",
          "type": "address"
        },
        {
          "internalType": "address",
          "name": "to",
          "type": "address"
        },
        {
          "internalType": "uint256",
          "name": "tokenId",
          "type": "uint256"
        },
        {
          "internalType": "bytes",
          "name": "data",
          "type": "bytes"
        }
      ],
      "name": "safeTransferFrom",
      "outputs": [],
      "stateMutability": "nonpayable",
      "type": "function"
    },
    {
      "inputs": [
        {
          "internalType": "address",
          "name": "operator",
          "type": "address"
        },
        {
          "internalType": "bool",
          "name": "approved",
          "type": "bool"
        }
      ],
      "name": "setApprovalForAll",
      "outputs": [],
      "stateMutability": "nonpayable",
      "type": "function"
    },
    {
      "inputs": [
        {
          "internalType": "bytes4",
          "name": "interfaceId",
          "type": "bytes4"
        }
      ],
      "name": "supportsInterface",
      "outputs": [
        {
          "internalType": "bool",
          "name": "",
          "type": "bool"
        }
      ],
      "stateMutability": "view",
      "type": "function"
    },
    {
      "inputs": [],
      "name": "symbol",
      "outputs": [
        {
          "internalType": "string",
          "name": "",
          "type": "string"
        }
      ],
      "stateMutability": "view",
      "type": "function"
    },
    {
      "inputs": [
        {
          "internalType": "uint256",
          "name": "tokenId",
          "type": "uint256"
        }
      ],
      "name": "tokenURI",
      "outputs": [
        {
          "internalType": "string",
          "name": "",
          "type": "string"
        }
      ],
      "stateMutability": "view",
      "type": "function"
    },
    {
      "inputs": [
        {
          "internalType": "address payable",
          "name": "newContractOwner",
          "type": "address"
        }
      ],
      "name": "transferContractOwnershipTo",
      "outputs": [],
      "stateMutability": "nonpayable",
      "type": "function"
    },
    {
      "inputs": [
        {
          "internalType": "address",
          "name": "from",
          "type": "address"
        },
        {
          "internalType": "address",
          "name": "to",
          "type": "address"
        },
        {
          "internalType": "uint256",
          "name": "tokenId",
          "type": "uint256"
        }
      ],
      "name": "transferFrom",
      "outputs": [],
      "stateMutability": "nonpayable",
      "type": "function"
    },
    {
      "inputs": [
        {
          "internalType": "uint256",
          "name": "tokenId",
          "type": "uint256"
        },
        {
          "internalType": "address",
          "name": "from",
          "type": "address"
        },
        {
          "internalType": "address",
          "name": "to",
          "type": "address"
        }
      ],
      "name": "transferMusicalNFT",
      "outputs": [],
      "stateMutability": "nonpayable",
      "type": "function"
    },
    {
      "inputs": [],
      "name": "withdraw",
      "outputs": [],
      "stateMutability": "nonpayable",
      "type": "function"
    },
    {
      "stateMutability": "payable",
      "type": "receive"
    }
  ],
  "bytecode": "0x60806040523480156200001157600080fd5b506040516200399b3803806200399b83398181016040528101906200003791906200023b565b818181600090816200004a91906200050b565b5080600190816200005c91906200050b565b50505033600660006101000a81548173ffffffffffffffffffffffffffffffffffffffff021916908373ffffffffffffffffffffffffffffffffffffffff1602179055505050620005f2565b6000604051905090565b600080fd5b600080fd5b600080fd5b600080fd5b6000601f19601f8301169050919050565b7f4e487b7100000000000000000000000000000000000000000000000000000000600052604160045260246000fd5b6200011182620000c6565b810181811067ffffffffffffffff82111715620001335762000132620000d7565b5b80604052505050565b600062000148620000a8565b905062000156828262000106565b919050565b600067ffffffffffffffff821115620001795762000178620000d7565b5b6200018482620000c6565b9050602081019050919050565b60005b83811015620001b157808201518184015260208101905062000194565b60008484015250505050565b6000620001d4620001ce846200015b565b6200013c565b905082815260208101848484011115620001f357620001f2620000c1565b5b6200020084828562000191565b509392505050565b600082601f83011262000220576200021f620000bc565b5b815162000232848260208601620001bd565b91505092915050565b60008060408385031215620002555762000254620000b2565b5b600083015167ffffffffffffffff811115620002765762000275620000b7565b5b620002848582860162000208565b925050602083015167ffffffffffffffff811115620002a857620002a7620000b7565b5b620002b68582860162000208565b9150509250929050565b600081519050919050565b7f4e487b7100000000000000000000000000000000000000000000000000000000600052602260045260246000fd5b600060028204905060018216806200031357607f821691505b602082108103620003295762000328620002cb565b5b50919050565b60008190508160005260206000209050919050565b60006020601f8301049050919050565b600082821b905092915050565b600060088302620003937fffffffffffffffffffffffffffffffffffffffffffffffffffffffffffffffff8262000354565b6200039f868362000354565b95508019841693508086168417925050509392505050565b6000819050919050565b6000819050919050565b6000620003ec620003e6620003e084620003b7565b620003c1565b620003b7565b9050919050565b6000819050919050565b6200040883620003cb565b620004206200041782620003f3565b84845462000361565b825550505050565b600090565b6200043762000428565b62000444818484620003fd565b505050565b5b818110156200046c57620004606000826200042d565b6001810190506200044a565b5050565b601f821115620004bb5762000485816200032f565b620004908462000344565b81016020851015620004a0578190505b620004b8620004af8562000344565b83018262000449565b50505b505050565b600082821c905092915050565b6000620004e060001984600802620004c0565b1980831691505092915050565b6000620004fb8383620004cd565b9150826002028217905092915050565b6200051682620002c0565b67ffffffffffffffff811115620005325762000531620000d7565b5b6200053e8254620002fa565b6200054b82828562000470565b600060209050601f8311600181146200058357600084156200056e578287015190505b6200057a8582620004ed565b865550620005ea565b601f19841662000593866200032f565b60005b82811015620005bd5784890151825560018201915060208501945060208101905062000596565b86831015620005dd5784890151620005d9601f891682620004cd565b8355505b6001600288020188555050505b505050505050565b61339980620006026000396000f3fe6080604052600436106101185760003560e01c80636352211e116100a0578063a22cb46511610064578063a22cb465146103f3578063b88d4fde1461041c578063bcae060114610445578063c87b56dd14610484578063e985e9c5146104c157610165565b80636352211e146102fa57806370a08231146103375780638da5cb5b1461037457806395d89b411461039f5780639bf4853d146103ca57610165565b80630badd512116100e75780630badd5121461023857806323b872dd146102615780632768ac8a1461028a5780633ccfd60b146102ba57806342842e0e146102d157610165565b806301ffc9a71461016a57806306fdde03146101a7578063081812fc146101d2578063095ea7b31461020f57610165565b36610165576101636040518060600160405280602e81526020016132a1602e91393433600660009054906101000a900473ffffffffffffffffffffffffffffffffffffffff166104fe565b005b600080fd5b34801561017657600080fd5b50610191600480360381019061018c91906121f4565b6105a0565b60405161019e919061223c565b60405180910390f35b3480156101b357600080fd5b506101bc610682565b6040516101c991906122e7565b60405180910390f35b3480156101de57600080fd5b506101f960048036038101906101f4919061233f565b610714565b60405161020691906123ad565b60405180910390f35b34801561021b57600080fd5b50610236600480360381019061023191906123f4565b610730565b005b34801561024457600080fd5b5061025f600480360381019061025a9190612472565b610746565b005b34801561026d57600080fd5b506102886004803603810190610283919061249f565b6108a8565b005b6102a4600480360381019061029f9190612627565b6109aa565b6040516102b191906126dd565b60405180910390f35b3480156102c657600080fd5b506102cf610c79565b005b3480156102dd57600080fd5b506102f860048036038101906102f3919061249f565b610d3e565b005b34801561030657600080fd5b50610321600480360381019061031c919061233f565b610d5e565b60405161032e91906123ad565b60405180910390f35b34801561034357600080fd5b5061035e600480360381019061035991906126f8565b610d70565b60405161036b91906126dd565b60405180910390f35b34801561038057600080fd5b50610389610e2a565b6040516103969190612734565b60405180910390f35b3480156103ab57600080fd5b506103b4610e50565b6040516103c191906122e7565b60405180910390f35b3480156103d657600080fd5b506103f160048036038101906103ec919061274f565b610ee2565b005b3480156103ff57600080fd5b5061041a600480360381019061041591906127ce565b610ef2565b005b34801561042857600080fd5b50610443600480360381019061043e91906128af565b610f08565b005b34801561045157600080fd5b5061046c6004803603810190610467919061233f565b610f25565b60405161047b93929190612932565b60405180910390f35b34801561049057600080fd5b506104ab60048036038101906104a6919061233f565b61111d565b6040516104b891906122e7565b60405180910390f35b3480156104cd57600080fd5b506104e860048036038101906104e3919061297e565b611186565b6040516104f5919061223c565b60405180910390f35b61059a8484848460405160240161051894939291906129be565b6040516020818303038152906040527f5ea2b7ae000000000000000000000000000000000000000000000000000000007bffffffffffffffffffffffffffffffffffffffffffffffffffffffff19166020820180517bffffffffffffffffffffffffffffffffffffffffffffffffffffffff838183161783525050505061121a565b50505050565b60007f80ac58cd000000000000000000000000000000000000000000000000000000007bffffffffffffffffffffffffffffffffffffffffffffffffffffffff1916827bffffffffffffffffffffffffffffffffffffffffffffffffffffffff1916148061066b57507f5b5e139f000000000000000000000000000000000000000000000000000000007bffffffffffffffffffffffffffffffffffffffffffffffffffffffff1916827bffffffffffffffffffffffffffffffffffffffffffffffffffffffff1916145b8061067b575061067a82611234565b5b9050919050565b60606000805461069190612a39565b80601f01602080910402602001604051908101604052809291908181526020018280546106bd90612a39565b801561070a5780601f106106df5761010080835404028352916020019161070a565b820191906000526020600020905b8154815290600101906020018083116106ed57829003601f168201915b5050505050905090565b600061071f8261129e565b5061072982611326565b9050919050565b610742828261073d611363565b61136b565b5050565b600660009054906101000a900473ffffffffffffffffffffffffffffffffffffffff1673ffffffffffffffffffffffffffffffffffffffff163373ffffffffffffffffffffffffffffffffffffffff161461081e576107e16040518060600160405280603b81526020016132cf603b913933600660009054906101000a900473ffffffffffffffffffffffffffffffffffffffff168461137d565b336040517f85c207d300000000000000000000000000000000000000000000000000000000815260040161081591906123ad565b60405180910390fd5b6108646040518060600160405280603481526020016133306034913933600660009054906101000a900473ffffffffffffffffffffffffffffffffffffffff168461137d565b80600660006101000a81548173ffffffffffffffffffffffffffffffffffffffff021916908373ffffffffffffffffffffffffffffffffffffffff16021790555050565b600073ffffffffffffffffffffffffffffffffffffffff168273ffffffffffffffffffffffffffffffffffffffff160361091a5760006040517f64a0ae9200000000000000000000000000000000000000000000000000000000815260040161091191906123ad565b60405180910390fd5b600061092e8383610929611363565b61141f565b90508373ffffffffffffffffffffffffffffffffffffffff168173ffffffffffffffffffffffffffffffffffffffff16146109a4578382826040517f64283d7b00000000000000000000000000000000000000000000000000000000815260040161099b93929190612a6a565b60405180910390fd5b50505050565b6000610a0860405180606001604052806026815260200161330a602691393373ffffffffffffffffffffffffffffffffffffffff1631600660009054906101000a900473ffffffffffffffffffffffffffffffffffffffff16611639565b662386f26fc100003373ffffffffffffffffffffffffffffffffffffffff16311015610a69576040517f08c379a0000000000000000000000000000000000000000000000000000000008152600401610a6090612b13565b60405180910390fd5b662386f26fc10000341015610ab3576040517f08c379a0000000000000000000000000000000000000000000000000000000008152600401610aaa90612ba5565b60405180910390fd5b662386f26fc10000341015610afd576040517f08c379a0000000000000000000000000000000000000000000000000000000008152600401610af490612c11565b60405180910390fd5b3073ffffffffffffffffffffffffffffffffffffffff166108fc662386f26fc100009081150290604051600060405180830381858888f19350505050158015610b4a573d6000803e3d6000fd5b50610b8f60405180606001604052806032815260200161326f60329139600660009054906101000a900473ffffffffffffffffffffffffffffffffffffffff166116d8565b60006007549050610ba03382611774565b6000604051806060016040528087815260200186815260200185815250905080600860008481526020019081526020016000206000820151816000019081610be89190612ddd565b506020820151816001019081610bfe9190612ddd565b506040820151816002019081610c149190612ddd565b509050507fde7ebb039d77a08d99e3bc386a7479bc11456b00dbf2471704b15972ace50a688183604051610c49929190612f57565b60405180910390a1600160076000828254610c649190612fb6565b92505081905550600754925050509392505050565b600660009054906101000a900473ffffffffffffffffffffffffffffffffffffffff1673ffffffffffffffffffffffffffffffffffffffff163373ffffffffffffffffffffffffffffffffffffffff1614610cd357600080fd5b600660009054906101000a900473ffffffffffffffffffffffffffffffffffffffff1673ffffffffffffffffffffffffffffffffffffffff166108fc479081150290604051600060405180830381858888f19350505050158015610d3b573d6000803e3d6000fd5b50565b610d5983838360405180602001604052806000815250610f08565b505050565b6000610d698261129e565b9050919050565b60008073ffffffffffffffffffffffffffffffffffffffff168273ffffffffffffffffffffffffffffffffffffffff1603610de35760006040517f89c62b64000000000000000000000000000000000000000000000000000000008152600401610dda91906123ad565b60405180910390fd5b600360008373ffffffffffffffffffffffffffffffffffffffff1673ffffffffffffffffffffffffffffffffffffffff168152602001908152602001600020549050919050565b600660009054906101000a900473ffffffffffffffffffffffffffffffffffffffff1681565b606060018054610e5f90612a39565b80601f0160208091040260200160405190810160405280929190818152602001828054610e8b90612a39565b8015610ed85780601f10610ead57610100808354040283529160200191610ed8565b820191906000526020600020905b815481529060010190602001808311610ebb57829003601f168201915b5050505050905090565b610eed828285610d3e565b505050565b610f04610efd611363565b838361186d565b5050565b610f138484846108a8565b610f1f848484846119dc565b50505050565b6060806060600860008581526020019081526020016000206000016008600086815260200190815260200160002060010160086000878152602001908152602001600020600201828054610f7890612a39565b80601f0160208091040260200160405190810160405280929190818152602001828054610fa490612a39565b8015610ff15780601f10610fc657610100808354040283529160200191610ff1565b820191906000526020600020905b815481529060010190602001808311610fd457829003601f168201915b5050505050925081805461100490612a39565b80601f016020809104026020016040519081016040528092919081815260200182805461103090612a39565b801561107d5780601f106110525761010080835404028352916020019161107d565b820191906000526020600020905b81548152906001019060200180831161106057829003601f168201915b5050505050915080805461109090612a39565b80601f01602080910402602001604051908101604052809291908181526020018280546110bc90612a39565b80156111095780601f106110de57610100808354040283529160200191611109565b820191906000526020600020905b8154815290600101906020018083116110ec57829003601f168201915b505050505090509250925092509193909250565b60606111288261129e565b506000611133611b93565b90506000815111611153576040518060200160405280600081525061117e565b8061115d84611baa565b60405160200161116e929190613026565b6040516020818303038152906040525b915050919050565b6000600560008473ffffffffffffffffffffffffffffffffffffffff1673ffffffffffffffffffffffffffffffffffffffff16815260200190815260200160002060008373ffffffffffffffffffffffffffffffffffffffff1673ffffffffffffffffffffffffffffffffffffffff16815260200190815260200160002060009054906101000a900460ff16905092915050565b61123181611229611c78611c99565b63ffffffff16565b50565b60007f01ffc9a7000000000000000000000000000000000000000000000000000000007bffffffffffffffffffffffffffffffffffffffffffffffffffffffff1916827bffffffffffffffffffffffffffffffffffffffffffffffffffffffff1916149050919050565b6000806112aa83611ca4565b9050600073ffffffffffffffffffffffffffffffffffffffff168173ffffffffffffffffffffffffffffffffffffffff160361131d57826040517f7e27328900000000000000000000000000000000000000000000000000000000815260040161131491906126dd565b60405180910390fd5b80915050919050565b60006004600083815260200190815260200160002060009054906101000a900473ffffffffffffffffffffffffffffffffffffffff169050919050565b600033905090565b6113788383836001611ce1565b505050565b61141984848484604051602401611397949392919061304a565b6040516020818303038152906040527fed8f28f6000000000000000000000000000000000000000000000000000000007bffffffffffffffffffffffffffffffffffffffffffffffffffffffff19166020820180517bffffffffffffffffffffffffffffffffffffffffffffffffffffffff838183161783525050505061121a565b50505050565b60008061142b84611ca4565b9050600073ffffffffffffffffffffffffffffffffffffffff168373ffffffffffffffffffffffffffffffffffffffff161461146d5761146c818486611ea6565b5b600073ffffffffffffffffffffffffffffffffffffffff168173ffffffffffffffffffffffffffffffffffffffff16146114fe576114af600085600080611ce1565b6001600360008373ffffffffffffffffffffffffffffffffffffffff1673ffffffffffffffffffffffffffffffffffffffff168152602001908152602001600020600082825403925050819055505b600073ffffffffffffffffffffffffffffffffffffffff168573ffffffffffffffffffffffffffffffffffffffff1614611581576001600360008773ffffffffffffffffffffffffffffffffffffffff1673ffffffffffffffffffffffffffffffffffffffff168152602001908152602001600020600082825401925050819055505b846002600086815260200190815260200160002060006101000a81548173ffffffffffffffffffffffffffffffffffffffff021916908373ffffffffffffffffffffffffffffffffffffffff160217905550838573ffffffffffffffffffffffffffffffffffffffff168273ffffffffffffffffffffffffffffffffffffffff167fddf252ad1be2c89b69c2b068fc378daa952ba7f163c4a11628f55a4df523b3ef60405160405180910390a4809150509392505050565b6116d383838360405160240161165193929190613096565b6040516020818303038152906040527f1c7ec448000000000000000000000000000000000000000000000000000000007bffffffffffffffffffffffffffffffffffffffffffffffffffffffff19166020820180517bffffffffffffffffffffffffffffffffffffffffffffffffffffffff838183161783525050505061121a565b505050565b61177082826040516024016116ee9291906130d4565b6040516020818303038152906040527f319af333000000000000000000000000000000000000000000000000000000007bffffffffffffffffffffffffffffffffffffffffffffffffffffffff19166020820180517bffffffffffffffffffffffffffffffffffffffffffffffffffffffff838183161783525050505061121a565b5050565b600073ffffffffffffffffffffffffffffffffffffffff168273ffffffffffffffffffffffffffffffffffffffff16036117e65760006040517f64a0ae920000000000000000000000000000000000000000000000000000000081526004016117dd91906123ad565b60405180910390fd5b60006117f48383600061141f565b9050600073ffffffffffffffffffffffffffffffffffffffff168173ffffffffffffffffffffffffffffffffffffffff16146118685760006040517f73c6ac6e00000000000000000000000000000000000000000000000000000000815260040161185f91906123ad565b60405180910390fd5b505050565b600073ffffffffffffffffffffffffffffffffffffffff168273ffffffffffffffffffffffffffffffffffffffff16036118de57816040517f5b08ba180000000000000000000000000000000000000000000000000000000081526004016118d591906123ad565b60405180910390fd5b80600560008573ffffffffffffffffffffffffffffffffffffffff1673ffffffffffffffffffffffffffffffffffffffff16815260200190815260200160002060008473ffffffffffffffffffffffffffffffffffffffff1673ffffffffffffffffffffffffffffffffffffffff16815260200190815260200160002060006101000a81548160ff0219169083151502179055508173ffffffffffffffffffffffffffffffffffffffff168373ffffffffffffffffffffffffffffffffffffffff167f17307eab39ab6107e8899845ad3d59bd9653f200f220920489ca2b5937696c31836040516119cf919061223c565b60405180910390a3505050565b60008373ffffffffffffffffffffffffffffffffffffffff163b1115611b8d578273ffffffffffffffffffffffffffffffffffffffff1663150b7a02611a20611363565b8685856040518563ffffffff1660e01b8152600401611a429493929190613159565b6020604051808303816000875af1925050508015611a7e57506040513d601f19601f82011682018060405250810190611a7b91906131ba565b60015b611b02573d8060008114611aae576040519150601f19603f3d011682016040523d82523d6000602084013e611ab3565b606091505b506000815103611afa57836040517f64a0ae92000000000000000000000000000000000000000000000000000000008152600401611af191906123ad565b60405180910390fd5b805181602001fd5b63150b7a0260e01b7bffffffffffffffffffffffffffffffffffffffffffffffffffffffff1916817bffffffffffffffffffffffffffffffffffffffffffffffffffffffff191614611b8b57836040517f64a0ae92000000000000000000000000000000000000000000000000000000008152600401611b8291906123ad565b60405180910390fd5b505b50505050565b606060405180602001604052806000815250905090565b606060006001611bb984611f6a565b01905060008167ffffffffffffffff811115611bd857611bd76124fc565b5b6040519080825280601f01601f191660200182016040528015611c0a5781602001600182028036833780820191505090505b509050600082602001820190505b600115611c6d578080600190039150507f3031323334353637383961626364656600000000000000000000000000000000600a86061a8153600a8581611c6157611c606131e7565b5b04945060008503611c18575b819350505050919050565b60006a636f6e736f6c652e6c6f679050600080835160208501845afa505050565b61217e819050919050565b60006002600083815260200190815260200160002060009054906101000a900473ffffffffffffffffffffffffffffffffffffffff169050919050565b8080611d1a5750600073ffffffffffffffffffffffffffffffffffffffff168273ffffffffffffffffffffffffffffffffffffffff1614155b15611e4e576000611d2a8461129e565b9050600073ffffffffffffffffffffffffffffffffffffffff168373ffffffffffffffffffffffffffffffffffffffff1614158015611d9557508273ffffffffffffffffffffffffffffffffffffffff168173ffffffffffffffffffffffffffffffffffffffff1614155b8015611da85750611da68184611186565b155b15611dea57826040517fa9fbf51f000000000000000000000000000000000000000000000000000000008152600401611de191906123ad565b60405180910390fd5b8115611e4c57838573ffffffffffffffffffffffffffffffffffffffff168273ffffffffffffffffffffffffffffffffffffffff167f8c5be1e5ebec7d5bd14f71427d1e84f3dd0314c0f7b2291e5b200ac8c7c3b92560405160405180910390a45b505b836004600085815260200190815260200160002060006101000a81548173ffffffffffffffffffffffffffffffffffffffff021916908373ffffffffffffffffffffffffffffffffffffffff16021790555050505050565b611eb18383836120bd565b611f6557600073ffffffffffffffffffffffffffffffffffffffff168373ffffffffffffffffffffffffffffffffffffffff1603611f2657806040517f7e273289000000000000000000000000000000000000000000000000000000008152600401611f1d91906126dd565b60405180910390fd5b81816040517f177e802f000000000000000000000000000000000000000000000000000000008152600401611f5c929190613216565b60405180910390fd5b505050565b600080600090507a184f03e93ff9f4daa797ed6e38ed64bf6a1f0100000000000000008310611fc8577a184f03e93ff9f4daa797ed6e38ed64bf6a1f0100000000000000008381611fbe57611fbd6131e7565b5b0492506040810190505b6d04ee2d6d415b85acef81000000008310612005576d04ee2d6d415b85acef81000000008381611ffb57611ffa6131e7565b5b0492506020810190505b662386f26fc10000831061203457662386f26fc10000838161202a576120296131e7565b5b0492506010810190505b6305f5e100831061205d576305f5e1008381612053576120526131e7565b5b0492506008810190505b6127108310612082576127108381612078576120776131e7565b5b0492506004810190505b606483106120a5576064838161209b5761209a6131e7565b5b0492506002810190505b600a83106120b4576001810190505b80915050919050565b60008073ffffffffffffffffffffffffffffffffffffffff168373ffffffffffffffffffffffffffffffffffffffff161415801561217557508273ffffffffffffffffffffffffffffffffffffffff168473ffffffffffffffffffffffffffffffffffffffff16148061213657506121358484611186565b5b8061217457508273ffffffffffffffffffffffffffffffffffffffff1661215c83611326565b73ffffffffffffffffffffffffffffffffffffffff16145b5b90509392505050565b61218661323f565b565b6000604051905090565b600080fd5b600080fd5b60007fffffffff0000000000000000000000000000000000000000000000000000000082169050919050565b6121d18161219c565b81146121dc57600080fd5b50565b6000813590506121ee816121c8565b92915050565b60006020828403121561220a57612209612192565b5b6000612218848285016121df565b91505092915050565b60008115159050919050565b61223681612221565b82525050565b6000602082019050612251600083018461222d565b92915050565b600081519050919050565b600082825260208201905092915050565b60005b83811015612291578082015181840152602081019050612276565b60008484015250505050565b6000601f19601f8301169050919050565b60006122b982612257565b6122c38185612262565b93506122d3818560208601612273565b6122dc8161229d565b840191505092915050565b6000602082019050818103600083015261230181846122ae565b905092915050565b6000819050919050565b61231c81612309565b811461232757600080fd5b50565b60008135905061233981612313565b92915050565b60006020828403121561235557612354612192565b5b60006123638482850161232a565b91505092915050565b600073ffffffffffffffffffffffffffffffffffffffff82169050919050565b60006123978261236c565b9050919050565b6123a78161238c565b82525050565b60006020820190506123c2600083018461239e565b92915050565b6123d18161238c565b81146123dc57600080fd5b50565b6000813590506123ee816123c8565b92915050565b6000806040838503121561240b5761240a612192565b5b6000612419858286016123df565b925050602061242a8582860161232a565b9150509250929050565b600061243f8261236c565b9050919050565b61244f81612434565b811461245a57600080fd5b50565b60008135905061246c81612446565b92915050565b60006020828403121561248857612487612192565b5b60006124968482850161245d565b91505092915050565b6000806000606084860312156124b8576124b7612192565b5b60006124c6868287016123df565b93505060206124d7868287016123df565b92505060406124e88682870161232a565b9150509250925092565b600080fd5b600080fd5b7f4e487b7100000000000000000000000000000000000000000000000000000000600052604160045260246000fd5b6125348261229d565b810181811067ffffffffffffffff82111715612553576125526124fc565b5b80604052505050565b6000612566612188565b9050612572828261252b565b919050565b600067ffffffffffffffff821115612592576125916124fc565b5b61259b8261229d565b9050602081019050919050565b82818337600083830152505050565b60006125ca6125c584612577565b61255c565b9050828152602081018484840111156125e6576125e56124f7565b5b6125f18482856125a8565b509392505050565b600082601f83011261260e5761260d6124f2565b5b813561261e8482602086016125b7565b91505092915050565b6000806000606084860312156126405761263f612192565b5b600084013567ffffffffffffffff81111561265e5761265d612197565b5b61266a868287016125f9565b935050602084013567ffffffffffffffff81111561268b5761268a612197565b5b612697868287016125f9565b925050604084013567ffffffffffffffff8111156126b8576126b7612197565b5b6126c4868287016125f9565b9150509250925092565b6126d781612309565b82525050565b60006020820190506126f260008301846126ce565b92915050565b60006020828403121561270e5761270d612192565b5b600061271c848285016123df565b91505092915050565b61272e81612434565b82525050565b60006020820190506127496000830184612725565b92915050565b60008060006060848603121561276857612767612192565b5b60006127768682870161232a565b9350506020612787868287016123df565b9250506040612798868287016123df565b9150509250925092565b6127ab81612221565b81146127b657600080fd5b50565b6000813590506127c8816127a2565b92915050565b600080604083850312156127e5576127e4612192565b5b60006127f3858286016123df565b9250506020612804858286016127b9565b9150509250929050565b600067ffffffffffffffff821115612829576128286124fc565b5b6128328261229d565b9050602081019050919050565b600061285261284d8461280e565b61255c565b90508281526020810184848401111561286e5761286d6124f7565b5b6128798482856125a8565b509392505050565b600082601f830112612896576128956124f2565b5b81356128a684826020860161283f565b91505092915050565b600080600080608085870312156128c9576128c8612192565b5b60006128d7878288016123df565b94505060206128e8878288016123df565b93505060406128f98782880161232a565b925050606085013567ffffffffffffffff81111561291a57612919612197565b5b61292687828801612881565b91505092959194509250565b6000606082019050818103600083015261294c81866122ae565b9050818103602083015261296081856122ae565b9050818103604083015261297481846122ae565b9050949350505050565b6000806040838503121561299557612994612192565b5b60006129a3858286016123df565b92505060206129b4858286016123df565b9150509250929050565b600060808201905081810360008301526129d881876122ae565b90506129e760208301866126ce565b6129f4604083018561239e565b612a01606083018461239e565b95945050505050565b7f4e487b7100000000000000000000000000000000000000000000000000000000600052602260045260246000fd5b60006002820490506001821680612a5157607f821691505b602082108103612a6457612a63612a0a565b5b50919050565b6000606082019050612a7f600083018661239e565b612a8c60208301856126ce565b612a99604083018461239e565b949350505050565b7f4f776e65722062616c616e6365206d757374206265206174206c65617374203060008201527f2e30312065746865720000000000000000000000000000000000000000000000602082015250565b6000612afd602983612262565b9150612b0882612aa1565b604082019050919050565b60006020820190508181036000830152612b2c81612af0565b9050919050565b7f6d73672e76616c7565206d7573742062652067726561746572207468616e203060008201527f2e30312065746865727300000000000000000000000000000000000000000000602082015250565b6000612b8f602a83612262565b9150612b9a82612b33565b604082019050919050565b60006020820190508181036000830152612bbe81612b82565b9050919050565b7f496e73756666696369656e742045746865722073656e74000000000000000000600082015250565b6000612bfb601783612262565b9150612c0682612bc5565b602082019050919050565b60006020820190508181036000830152612c2a81612bee565b9050919050565b60008190508160005260206000209050919050565b60006020601f8301049050919050565b600082821b905092915050565b600060088302612c937fffffffffffffffffffffffffffffffffffffffffffffffffffffffffffffffff82612c56565b612c9d8683612c56565b95508019841693508086168417925050509392505050565b6000819050919050565b6000612cda612cd5612cd084612309565b612cb5565b612309565b9050919050565b6000819050919050565b612cf483612cbf565b612d08612d0082612ce1565b848454612c63565b825550505050565b600090565b612d1d612d10565b612d28818484612ceb565b505050565b5b81811015612d4c57612d41600082612d15565b600181019050612d2e565b5050565b601f821115612d9157612d6281612c31565b612d6b84612c46565b81016020851015612d7a578190505b612d8e612d8685612c46565b830182612d2d565b50505b505050565b600082821c905092915050565b6000612db460001984600802612d96565b1980831691505092915050565b6000612dcd8383612da3565b9150826002028217905092915050565b612de682612257565b67ffffffffffffffff811115612dff57612dfe6124fc565b5b612e098254612a39565b612e14828285612d50565b600060209050601f831160018114612e475760008415612e35578287015190505b612e3f8582612dc1565b865550612ea7565b601f198416612e5586612c31565b60005b82811015612e7d57848901518255600182019150602085019450602081019050612e58565b86831015612e9a5784890151612e96601f891682612da3565b8355505b6001600288020188555050505b505050505050565b600082825260208201905092915050565b6000612ecb82612257565b612ed58185612eaf565b9350612ee5818560208601612273565b612eee8161229d565b840191505092915050565b60006060830160008301518482036000860152612f168282612ec0565b91505060208301518482036020860152612f308282612ec0565b91505060408301518482036040860152612f4a8282612ec0565b9150508091505092915050565b60006040820190508181036000830152612f718185612ef9565b9050612f8060208301846126ce565b9392505050565b7f4e487b7100000000000000000000000000000000000000000000000000000000600052601160045260246000fd5b6000612fc182612309565b9150612fcc83612309565b9250828201905080821115612fe457612fe3612f87565b5b92915050565b600081905092915050565b600061300082612257565b61300a8185612fea565b935061301a818560208601612273565b80840191505092915050565b60006130328285612ff5565b915061303e8284612ff5565b91508190509392505050565b6000608082019050818103600083015261306481876122ae565b9050613073602083018661239e565b613080604083018561239e565b61308d606083018461239e565b95945050505050565b600060608201905081810360008301526130b081866122ae565b90506130bf60208301856126ce565b6130cc604083018461239e565b949350505050565b600060408201905081810360008301526130ee81856122ae565b90506130fd602083018461239e565b9392505050565b600081519050919050565b600082825260208201905092915050565b600061312b82613104565b613135818561310f565b9350613145818560208601612273565b61314e8161229d565b840191505092915050565b600060808201905061316e600083018761239e565b61317b602083018661239e565b61318860408301856126ce565b818103606083015261319a8184613120565b905095945050505050565b6000815190506131b4816121c8565b92915050565b6000602082840312156131d0576131cf612192565b5b60006131de848285016131a5565b91505092915050565b7f4e487b7100000000000000000000000000000000000000000000000000000000600052601260045260246000fd5b600060408201905061322b600083018561239e565b61323860208301846126ce565b9392505050565b7f4e487b7100000000000000000000000000000000000000000000000000000000600052605160045260246000fdfe302e303120657468657273207472616e73666572656420746f207468697320636f6e7472616374206164647265737320257325732045746865722072656369657665642066726f6d2073656e6465722825732920746f206f776e6572282573296d73672e73656e646572203a202573202063757272656e74206f776e6572203a20257320206e657750726f6261626c654f776e6572203a202573206d73672e73656e6465722e62616c616e63653a20257320616e64206f776e65722069732025736d73672e73656e646572203a202573202063757272656e74206f776e6572203a20257320204e6577204f776e6572203a20257320a26469706673582212201d8f6445fb287bb48099b3ed4261c40db0889c0c679d45f84af6409bf9196d2e64736f6c63430008140033",
  "linkReferences": {},
  "deployedLinkReferences": {}
}